{
  "contractName": "EthereumTower",
  "abi": [
    {
      "constant": true,
      "inputs": [],
      "name": "coinCount",
      "outputs": [
        {
          "name": "",
          "type": "uint32"
        }
      ],
      "payable": false,
      "stateMutability": "view",
      "type": "function"
    },
    {
      "constant": true,
      "inputs": [],
      "name": "playPrice",
      "outputs": [
        {
          "name": "",
          "type": "uint256"
        }
      ],
      "payable": false,
      "stateMutability": "view",
      "type": "function"
    },
    {
      "constant": true,
      "inputs": [
        {
          "name": "",
          "type": "uint256"
        }
      ],
      "name": "coinPositionsArray",
      "outputs": [
        {
          "name": "",
          "type": "int32"
        }
      ],
      "payable": false,
      "stateMutability": "view",
      "type": "function"
    },
    {
      "constant": true,
      "inputs": [],
      "name": "maxn",
      "outputs": [
        {
          "name": "",
          "type": "uint256"
        }
      ],
      "payable": false,
      "stateMutability": "view",
      "type": "function"
    },
    {
      "constant": true,
      "inputs": [],
      "name": "winner",
      "outputs": [
        {
          "name": "",
          "type": "address"
        }
      ],
      "payable": false,
      "stateMutability": "view",
      "type": "function"
    },
    {
      "constant": true,
      "inputs": [],
      "name": "coinWidth",
      "outputs": [
        {
          "name": "",
          "type": "int32"
        }
      ],
      "payable": false,
      "stateMutability": "view",
      "type": "function"
    },
    {
      "inputs": [],
      "payable": false,
      "stateMutability": "nonpayable",
      "type": "constructor"
    },
    {
      "anonymous": false,
      "inputs": [
        {
          "indexed": true,
          "name": "TXid",
          "type": "address"
        },
        {
          "indexed": false,
          "name": "dx",
          "type": "int32"
        },
        {
          "indexed": false,
          "name": "currentcount",
          "type": "uint32"
        },
        {
          "indexed": false,
          "name": "resultStability",
          "type": "int32"
        }
      ],
      "name": "playResult",
      "type": "event"
    },
    {
      "constant": false,
      "inputs": [
        {
          "name": "dx",
          "type": "int32"
        },
        {
          "name": "TXid",
          "type": "address"
        }
      ],
      "name": "play",
      "outputs": [],
      "payable": true,
      "stateMutability": "payable",
      "type": "function"
    },
    {
      "constant": true,
      "inputs": [],
      "name": "getCoinPositionsArray",
      "outputs": [
        {
          "name": "",
          "type": "int32[30]"
        }
      ],
      "payable": false,
      "stateMutability": "view",
      "type": "function"
    },
    {
      "constant": false,
      "inputs": [
        {
          "name": "_playPrice",
          "type": "uint256"
        }
      ],
      "name": "setPlayPrice",
      "outputs": [],
      "payable": false,
      "stateMutability": "nonpayable",
      "type": "function"
    },
    {
      "constant": false,
      "inputs": [],
      "name": "kill",
      "outputs": [],
      "payable": false,
      "stateMutability": "nonpayable",
      "type": "function"
    }
  ],
  "bytecode": "0x6060604052341561000f57600080fd5b336000806101000a81548173ffffffffffffffffffffffffffffffffffffffff021916908373ffffffffffffffffffffffffffffffffffffffff1602179055506000600160146101000a81548163ffffffff021916908363ffffffff16021790555067016345785d8a00006002819055506108128061008f6000396000f3006060604052600436106100a4576000357c0100000000000000000000000000000000000000000000000000000000900463ffffffff16806341c0e1b5146100a957806359a9ae11146100be578063678fd289146100e157806369c1a7ed146101165780636cfb395e1461013f57806375b6c2551461017c5780637f04dfeb146101b6578063a59b48e614610207578063dfbf53ae14610230578063f997375014610285575b600080fd5b34156100b457600080fd5b6100bc6102b4565b005b34156100c957600080fd5b6100df6004808035906020019091905050610349565b005b34156100ec57600080fd5b6100f46103d0565b604051808263ffffffff1663ffffffff16815260200191505060405180910390f35b341561012157600080fd5b6101296103e6565b6040518082815260200191505060405180910390f35b341561014a57600080fd5b61016060048080359060200190919050506103ec565b604051808260030b60030b815260200191505060405180910390f35b6101b4600480803560030b90602001909190803573ffffffffffffffffffffffffffffffffffffffff16906020019091905050610418565b005b34156101c157600080fd5b6101c96105a5565b6040518082601e60200280838360005b838110156101f45780820151818401526020810190506101d9565b5050505090500191505060405180910390f35b341561021257600080fd5b61021a610616565b6040518082815260200191505060405180910390f35b341561023b57600080fd5b61024361061b565b604051808273ffffffffffffffffffffffffffffffffffffffff1673ffffffffffffffffffffffffffffffffffffffff16815260200191505060405180910390f35b341561029057600080fd5b610298610641565b604051808260030b60030b815260200191505060405180910390f35b6000809054906101000a900473ffffffffffffffffffffffffffffffffffffffff1673ffffffffffffffffffffffffffffffffffffffff163373ffffffffffffffffffffffffffffffffffffffff1614151561030f57600080fd5b6000809054906101000a900473ffffffffffffffffffffffffffffffffffffffff1673ffffffffffffffffffffffffffffffffffffffff16ff5b6000809054906101000a900473ffffffffffffffffffffffffffffffffffffffff1673ffffffffffffffffffffffffffffffffffffffff163373ffffffffffffffffffffffffffffffffffffffff161415156103a457600080fd5b6000600160149054906101000a900463ffffffff1663ffffffff1614156103cd57806002819055505b50565b600160149054906101000a900463ffffffff1681565b60025481565b600381601e811015156103fb57fe5b60089182820401919006600402915054906101000a900460030b81565b60008060006002543414151561042a57fe5b600160149054906101000a900463ffffffff1692508460038463ffffffff16601e8110151561045557fe5b600891828204019190066004026101000a81548163ffffffff021916908360030b63ffffffff160217905550610490836101f460030b610647565b91508373ffffffffffffffffffffffffffffffffffffffff167f4dd31448840b32a87e7b2014eec02d56365d586c28c9f7e9e48b706fd9331644868585604051808460030b60030b81526020018363ffffffff1663ffffffff1681526020018260030b60030b8152602001935050505060405180910390a260008260030b12151561056257818360010103905060018163ffffffff1611156105525781600160146101000a81548163ffffffff021916908363ffffffff160217905550610553565b5b61055d338261072b565b61059e565b6001601481819054906101000a900463ffffffff168092919060010191906101000a81548163ffffffff021916908363ffffffff160217905550505b5050505050565b6105ad6107ba565b6003601e806020026040519081016040528092919082601e801561060c576020028201916000905b82829054906101000a900460030b60030b815260200190600401906020826003010492830192600103820291508084116105d55790505b5050505050905090565b601e81565b600160009054906101000a900473ffffffffffffffffffffffffffffffffffffffff1681565b6101f481565b6000806000806000807fffffffffffffffffffffffffffffffffffffffffffffffffffffffffffffffff9450600092508790505b601e8163ffffffff16108015610694575060008560030b125b1561071d5760018189030163ffffffff16935060038163ffffffff16601e811015156106bc57fe5b600891828204019190066004029054906101000a900460030b60030b848460018703028115156106e857fe5b05019150819250868213156106ff5780945061070f565b8660000382121561070e578094505b5b80806001900391505061067b565b849550505050505092915050565b8173ffffffffffffffffffffffffffffffffffffffff166108fc8263ffffffff16600254029081150290604051600060405180830381858888f19350505050151561077557600080fd5b81600160006101000a81548173ffffffffffffffffffffffffffffffffffffffff021916908373ffffffffffffffffffffffffffffffffffffffff1602179055505050565b6103c060405190810160405280601e905b600060030b8152602001906001900390816107cb57905050905600a165627a7a723058202626a7aad5784ea921062e50f417762c8a415b703e4585e61e04217e1a2390e60029",
  "source": "pragma solidity 0.4.21;\n\ncontract EthereumTower{\n\n  /* Last updated March 9 2018 */\n    address owner;\n    address public winner;\n    uint32 public coinCount;\n    uint public playPrice;\n    uint constant public maxn = 30;\n    int32[maxn] public coinPositionsArray;\n\n    /* Game constants, coin width already set a half */\n    int32 constant public coinWidth = 1000/2;\n\n    event playResult(address indexed TXid, int32 dx, uint32 currentcount, int32 resultStability);\n\n    function EthereumTower() public {\n        owner = msg.sender;\n        coinCount = 0;\n        playPrice = 0.1 * 1000000000000000000;\n    }\n\n    modifier onlyOwner {\n    if (msg.sender != owner) revert();\n    _;\n    }\n\n    function play(int32 dx, address TXid) payable public {\n        /* Very user is paying the correct amount */\n        assert(msg.value == playPrice);\n\n        /* Check if the coin stack falls */\n        uint32 currentcount = coinCount;\n\n        /* Update the dxs so the front-end can draw properly */\n        /* dx = relative position from previous coin */\n        coinPositionsArray[currentcount] = dx;\n        int32 resultStability = checkStability(currentcount, coinWidth);\n        /* resultStability = (if fall) new count (else) -1 */\n        emit playResult(TXid, dx, currentcount, resultStability);\n\n        if (resultStability>=0) {\n            /* Resolve a partial win */\n            uint32 numberOfFallenCoins = 1+currentcount-uint32(resultStability);\n            if (numberOfFallenCoins>1) {\n                /* Multiple coins have fallen */\n                /* Only update count if it's necessary */\n                coinCount = uint32(resultStability);\n            } else {\n                /* Only the last coin has fallen */\n            }\n            withdraw(msg.sender, numberOfFallenCoins);\n        } else {\n            /* Not a win, add coin to stack */\n            coinCount ++;\n        }\n    }\n\n    function checkStability(uint32 n, int w) internal view returns(int32) {\n        /* (if fall) returns new count (else) returns -1 */\n        /* input n is current coin count EXCLUDING the new */\n        int32 res = -1;\n        int f; int k0 = 0; int k1;\n        uint32 i = n;\n        // Scroll from top (n) to bottom (0)\n        while (i < maxn && res < 0) {\n        // factor f is 1 for the top coin then, sum 1 downwards\n            f = n-i+1;\n        // Maybe test the new coin alone to avoid adding uncessarily to storage\n            k1 = (f-1)*k0/f+coinPositionsArray[i];\n            k0 = k1;\n            if (k1 > w) {res = int32(i);}\n            else if (k1 < -w) {res = int32(i);}\n            i--;\n        }\n        return res;\n    }\n\n    function getCoinPositionsArray() constant public returns (int32[maxn]){\n    \treturn coinPositionsArray;\n    }\n\n    function withdraw(address userAccount, uint32 dn) internal {\n        // Transfer to the winner the value of the coins fallen\n        userAccount.transfer(playPrice*dn);\n        winner = userAccount;\n    }\n\n    function setPlayPrice(uint _playPrice) onlyOwner public {\n        if(coinCount == 0) {\n\t\t    playPrice = _playPrice;\n        }\n    }\n\n    function kill() onlyOwner public { selfdestruct(owner); }\n\n}\n",
  "sourcePath": "/blockChain/ethTRv5/contracts/EthereumTower.sol",
  "compiler": {
    "name": "solc",
    "version": "0.4.21+commit.dfe3193c.Emscripten.clang"
  },
  "schemaVersion": "2.0.0",
  "updatedAt": "2018-03-11T18:06:27.963Z"
}