{
  "contractName": "TowerGame",
  "abi": [
    {
      "constant": true,
      "inputs": [],
      "name": "coinCount",
      "outputs": [
        {
          "name": "",
          "type": "uint32"
        }
      ],
      "payable": false,
      "stateMutability": "view",
      "type": "function",
      "signature": "0x678fd289"
    },
    {
      "constant": true,
      "inputs": [],
      "name": "playPrice",
      "outputs": [
        {
          "name": "",
          "type": "uint256"
        }
      ],
      "payable": false,
      "stateMutability": "view",
      "type": "function",
      "signature": "0x69c1a7ed"
    },
    {
      "constant": true,
      "inputs": [
        {
          "name": "",
          "type": "uint256"
        }
      ],
      "name": "coinPositionsArray",
      "outputs": [
        {
          "name": "",
          "type": "int32"
        }
      ],
      "payable": false,
      "stateMutability": "view",
      "type": "function",
      "signature": "0x6cfb395e"
    },
    {
      "constant": true,
      "inputs": [],
      "name": "owner",
      "outputs": [
        {
          "name": "",
          "type": "address"
        }
      ],
      "payable": false,
      "stateMutability": "view",
      "type": "function",
      "signature": "0x8da5cb5b"
    },
    {
      "constant": true,
      "inputs": [],
      "name": "width",
      "outputs": [
        {
          "name": "",
          "type": "int32"
        }
      ],
      "payable": false,
      "stateMutability": "view",
      "type": "function",
      "signature": "0x9ededf77"
    },
    {
      "inputs": [],
      "payable": false,
      "stateMutability": "nonpayable",
      "type": "constructor",
      "signature": "constructor"
    },
    {
      "anonymous": false,
      "inputs": [
        {
          "indexed": true,
          "name": "player",
          "type": "address"
        },
        {
          "indexed": false,
          "name": "dx",
          "type": "int32"
        },
        {
          "indexed": false,
          "name": "coinCount",
          "type": "uint32"
        },
        {
          "indexed": false,
          "name": "fallingCoins",
          "type": "uint32"
        }
      ],
      "name": "PlayResult",
      "type": "event",
      "signature": "0x85e2b21a3b931e56e858f5cb204a1159f50eb5b77d0203ceb658f26ad8781fdb"
    },
    {
      "constant": false,
      "inputs": [
        {
          "name": "dx",
          "type": "int32"
        }
      ],
      "name": "play",
      "outputs": [],
      "payable": true,
      "stateMutability": "payable",
      "type": "function",
      "signature": "0xa8291e0d"
    },
    {
      "constant": true,
      "inputs": [
        {
          "name": "n",
          "type": "uint32"
        },
        {
          "name": "_width",
          "type": "int256"
        },
        {
          "name": "dxArray",
          "type": "int32[]"
        }
      ],
      "name": "countFallingCoins",
      "outputs": [
        {
          "name": "",
          "type": "uint32"
        }
      ],
      "payable": false,
      "stateMutability": "pure",
      "type": "function",
      "signature": "0xf9f6ce20"
    },
    {
      "constant": false,
      "inputs": [
        {
          "name": "_playPrice",
          "type": "uint256"
        }
      ],
      "name": "setPlayPrice",
      "outputs": [],
      "payable": false,
      "stateMutability": "nonpayable",
      "type": "function",
      "signature": "0x59a9ae11"
    },
    {
      "constant": true,
      "inputs": [],
      "name": "getCoinPositionsArray",
      "outputs": [
        {
          "name": "",
          "type": "int32[]"
        }
      ],
      "payable": false,
      "stateMutability": "view",
      "type": "function",
      "signature": "0x7f04dfeb"
    },
    {
      "constant": false,
      "inputs": [],
      "name": "kill",
      "outputs": [],
      "payable": false,
      "stateMutability": "nonpayable",
      "type": "function",
      "signature": "0x41c0e1b5"
    }
  ],
  "bytecode": "0x608060405260008060146101000a81548163ffffffff021916908363ffffffff16021790555067016345785d8a000060015534801561003d57600080fd5b50336000806101000a81548173ffffffffffffffffffffffffffffffffffffffff021916908373ffffffffffffffffffffffffffffffffffffffff160217905550610c9a8061008d6000396000f3fe6080604052600436106100a4576000357c0100000000000000000000000000000000000000000000000000000000900463ffffffff16806341c0e1b5146100a957806359a9ae11146100c0578063678fd289146100fb57806369c1a7ed146101325780636cfb395e1461015d5780637f04dfeb146101b25780638da5cb5b1461021e5780639ededf7714610275578063a8291e0d146102a6578063f9f6ce20146102d7575b600080fd5b3480156100b557600080fd5b506100be6103d6565b005b3480156100cc57600080fd5b506100f9600480360360208110156100e357600080fd5b81019080803590602001909291905050506104b3565b005b34801561010757600080fd5b50610110610636565b604051808263ffffffff1663ffffffff16815260200191505060405180910390f35b34801561013e57600080fd5b5061014761064c565b6040518082815260200191505060405180910390f35b34801561016957600080fd5b506101966004803603602081101561018057600080fd5b8101908080359060200190929190505050610652565b604051808260030b60030b815260200191505060405180910390f35b3480156101be57600080fd5b506101c7610688565b6040518080602001828103825283818151815260200191508051906020019060200280838360005b8381101561020a5780820151818401526020810190506101ef565b505050509050019250505060405180910390f35b34801561022a57600080fd5b50610233610766565b604051808273ffffffffffffffffffffffffffffffffffffffff1673ffffffffffffffffffffffffffffffffffffffff16815260200191505060405180910390f35b34801561028157600080fd5b5061028a61078b565b604051808260030b60030b815260200191505060405180910390f35b6102d5600480360360208110156102bc57600080fd5b81019080803560030b9060200190929190505050610791565b005b3480156102e357600080fd5b506103b4600480360360608110156102fa57600080fd5b81019080803563ffffffff169060200190929190803590602001909291908035906020019064010000000081111561033157600080fd5b82018360208201111561034357600080fd5b8035906020019184602083028401116401000000008311171561036557600080fd5b919080806020026020016040519081016040528093929190818152602001838360200280828437600081840152601f19601f820116905080830192505050505050509192919290505050610bd2565b604051808263ffffffff1663ffffffff16815260200191505060405180910390f35b6000809054906101000a900473ffffffffffffffffffffffffffffffffffffffff1673ffffffffffffffffffffffffffffffffffffffff163373ffffffffffffffffffffffffffffffffffffffff1614151561049a576040517f08c379a000000000000000000000000000000000000000000000000000000000815260040180806020018281038252600a8152602001807f4f6e6c79206f776e65720000000000000000000000000000000000000000000081525060200191505060405180910390fd5b3373ffffffffffffffffffffffffffffffffffffffff16ff5b6000809054906101000a900473ffffffffffffffffffffffffffffffffffffffff1673ffffffffffffffffffffffffffffffffffffffff163373ffffffffffffffffffffffffffffffffffffffff16141515610577576040517f08c379a000000000000000000000000000000000000000000000000000000000815260040180806020018281038252600a8152602001807f4f6e6c79206f776e65720000000000000000000000000000000000000000000081525060200191505060405180910390fd5b60008060149054906101000a900463ffffffff1663ffffffff1614151561062c576040517f08c379a000000000000000000000000000000000000000000000000000000000815260040180806020018281038252603e8152602001807f506c61792070726963652063616e206f6e6c79206265206368616e676564207781526020017f68656e20746865726520617265206e6f20636f696e7320696e2067616d65000081525060400191505060405180910390fd5b8060018190555050565b600060149054906101000a900463ffffffff1681565b60015481565b60028181548110151561066157fe5b9060005260206000209060089182820401919006600402915054906101000a900460030b81565b606080600060149054906101000a900463ffffffff1663ffffffff166040519080825280602002602001820160405280156106d25781602001602082028038833980820191505090505b50905060008090505b600060149054906101000a900463ffffffff1663ffffffff1681101561075e5760028181548110151561070a57fe5b90600052602060002090600891828204019190066004029054906101000a900460030b828281518110151561073b57fe5b9060200190602002019060030b908160030b8152505080806001019150506106db565b508091505090565b6000809054906101000a900473ffffffffffffffffffffffffffffffffffffffff1681565b61c35081565b60015434141515610830576040517f08c379a00000000000000000000000000000000000000000000000000000000081526004018080602001828103825260288152602001807f4d6573736167652076616c7565206d75737420626520657175616c20746f207081526020017f6c6179507269636500000000000000000000000000000000000000000000000081525060400191505060405180910390fd5b61c35060000360030b8160030b138015610851575061c35060030b8160030b125b15156108eb576040517f08c379a00000000000000000000000000000000000000000000000000000000081526004018080602001828103825260228152602001807f436f696e20706f736974696f6e206d7573742062652077697468696e2077696481526020017f746800000000000000000000000000000000000000000000000000000000000081525060400191505060405180910390fd5b600060149054906101000a900463ffffffff1663ffffffff16600280549050141561096957600281908060018154018082558091505090600182039060005260206000209060089182820401919006600402909192909190916101000a81548163ffffffff021916908360030b63ffffffff160217905550506109c8565b806002600060149054906101000a900463ffffffff1663ffffffff1681548110151561099157fe5b90600052602060002090600891828204019190066004026101000a81548163ffffffff021916908360030b63ffffffff1602179055505b6000610a656001600060149054906101000a900463ffffffff160161c35060030b6002805480602002602001604051908101604052809291908181526020018280548015610a5b57602002820191906000526020600020906000905b82829054906101000a900460030b60030b81526020019060040190602082600301049283019260010382029150808411610a245790505b5050505050610bd2565b905060008163ffffffff161115610b0457806001600060149054906101000a900463ffffffff160103600060146101000a81548163ffffffff021916908363ffffffff1602179055503373ffffffffffffffffffffffffffffffffffffffff166108fc8263ffffffff16600154029081150290604051600060405180830381858888f19350505050158015610afe573d6000803e3d6000fd5b50610b40565b6000601481819054906101000a900463ffffffff168092919060010191906101000a81548163ffffffff021916908363ffffffff160217905550505b3373ffffffffffffffffffffffffffffffffffffffff167f85e2b21a3b931e56e858f5cb204a1159f50eb5b77d0203ceb658f26ad8781fdb83600060149054906101000a900463ffffffff1684604051808460030b60030b81526020018363ffffffff1663ffffffff1681526020018263ffffffff1663ffffffff168152602001935050505060405180910390a25050565b6000806000600190505b8563ffffffff168163ffffffff16111515610c60578381870363ffffffff16815181101515610c0757fe5b9060200190602002015160030b8163ffffffff16836001840363ffffffff1602811515610c3057fe5b0501915084821380610c4457508460000382125b15610c53578092505050610c67565b8080600101915050610bdc565b6000925050505b939250505056fea165627a7a72305820fc9daaed7414e03cee8de7df23f693aebfb585ec17c895b6a1aaeca2166853300029",
  "source": "pragma solidity ^0.5.0;\n\n\ncontract TowerGame {\n    /* TOWER GAME\n\n    The tower game is based on the idea o piling up wide rectangles in a 2D plane with gravity\n    Players can choose the relative distance from the center vertical line of the plane to position\n    then next rectangle on top of the previous. This contract will compute the static stability of \n    the rectangles assuming uniform density and equal mass and dimensions.\n\n                      dx\n                    |--->\n              █████████████\n        █████████████\n           █████████████\n       █████████████\n    /=============\\\n\n    When a player executes a play, deposits a play price on the contract, `x`. \n    When a play causes `n` coins to fall, the player will be transfered `n*x` as prize.\n\n    Players will call the play function with the desired relative position of the next coin `dx`\n    This function will:\n    1. Compute the stability of the current tower\n    2. If it is unstable and will fall, transfer the prize to the msg.sender \n    3. Update the status of the tower, new coin position and number of coins\n    */\n\n    address public owner;\n    uint32 public coinCount = 0;\n    /* Initial play price set to 0.1 ETH. Contract owner should use `setPlayPrice` to set the desired amount */\n    uint public playPrice = 0.1 * 1e18;\n    int32[] public coinPositionsArray;\n\n    /* Width is a big integer to allow certain decimal resolution. \n    Width in the context of this contract refers to half of the total rectangle width\n    The front end should call the `width` getter to scale their dimensions for this contract\n    If the front-end uses pixels to measure the rectangles:\n        dx = dxInPixels * (2 * width) / widthInPixels\n    */\n    int32 constant public width = 1e5/2;\n\n    event PlayResult(address indexed player, int32 dx, uint32 coinCount, uint32 fallingCoins);\n\n    constructor() public {\n        owner = msg.sender;\n    }\n\n    modifier onlyOwner {\n        if (msg.sender != owner) revert(\"Only owner\");\n        _;\n    }\n\n    function play(int32 dx) public payable {\n        /* Verify user is paying the correct amount */\n        require(msg.value == playPrice, \"Message value must be equal to playPrice\");\n        require(dx > -width && dx < width, \"Coin position must be within width\");\n\n        /* Update the dxs so the front-end can draw properly\n           dx = relative position from previous coin\n           You cannot assign values by index to a dynamic array of length 0.\n           Use push to extend the length of the array and direct assignment to replace previous coin positions\n        */\n        if (coinPositionsArray.length == coinCount) {\n            coinPositionsArray.push(dx);\n        } else {\n            coinPositionsArray[coinCount] = dx;\n        }\n        \n        uint32 fallingCoins = countFallingCoins(coinCount + 1, width, coinPositionsArray);\n\n        if (fallingCoins > 0) {\n            // fallingCoins = 1 should never happen because of the require that prevents dx to trigger an immediate fall\n            coinCount = coinCount + 1 - fallingCoins;\n            msg.sender.transfer(playPrice * fallingCoins);\n        } else {\n            /* Not a win, add coin to stack */\n            coinCount++;\n        }\n\n        emit PlayResult(msg.sender, dx, coinCount, fallingCoins);\n    }\n\n    function countFallingCoins(uint32 n, int _width, int32[] memory dxArray) public pure returns (uint32) {\n        /* Verifies the static stability of piled up planes\n        It returns the number of fallen coins or 0 if none falls.\n        It swipes the tower from top to bottom. In case of two unstable points, it will return the closest to the top.\n        The algorythm is:\n            i is a coin counter, equal to 1 on the top coin and increments downwards\n            K[i] = (i-1) * K[i-1] / i + dx[i]\n            Then check: K[i] < w , K[i] > w\n        */\n        int k1;\n        uint32 i = 1;\n        while (i <= n) {\n            k1 = (i - 1) * k1 / i + dxArray[n - i];\n            if (k1 > _width || k1 < -_width) {\n                return i;\n            }\n            i++;\n        }\n        return 0;\n    }\n\n    function setPlayPrice(uint _playPrice) public onlyOwner {\n        require(coinCount == 0, \"Play price can only be changed when there are no coins in game\");\n        playPrice = _playPrice;\n    }\n\n    function getCoinPositionsArray() public view returns (int32[] memory) {\n        int32[] memory relevantArray = new int32[](coinCount);\n        for (uint i = 0; i < coinCount; i++){\n            relevantArray[i] = coinPositionsArray[i];\n        }\n        return relevantArray;\n    }\n\n    function kill() public onlyOwner {\n        selfdestruct(msg.sender);\n    }\n}\n",
  "sourcePath": "/Users/LION/code/ethereumTower/contracts/TowerGame.sol",
  "compiler": {
    "name": "solc",
    "version": "0.5.0+commit.1d4f565a.Emscripten.clang"
  },
  "schemaVersion": "3.0.1",
  "updatedAt": "2019-02-13T21:58:46.314Z",
  "devdoc": {
    "methods": {}
  },
  "userdoc": {
    "methods": {}
  }
}