{
  "contractName": "TowerGame",
  "abi": [
    {
      "constant": true,
      "inputs": [],
      "name": "MAX_N",
      "outputs": [
        {
          "name": "",
          "type": "uint256"
        }
      ],
      "payable": false,
      "stateMutability": "view",
      "type": "function",
      "signature": "0x0a906639"
    },
    {
      "constant": true,
      "inputs": [],
      "name": "coinCount",
      "outputs": [
        {
          "name": "",
          "type": "uint32"
        }
      ],
      "payable": false,
      "stateMutability": "view",
      "type": "function",
      "signature": "0x678fd289"
    },
    {
      "constant": true,
      "inputs": [],
      "name": "playPrice",
      "outputs": [
        {
          "name": "",
          "type": "uint256"
        }
      ],
      "payable": false,
      "stateMutability": "view",
      "type": "function",
      "signature": "0x69c1a7ed"
    },
    {
      "constant": true,
      "inputs": [
        {
          "name": "",
          "type": "uint256"
        }
      ],
      "name": "coinPositionsArray",
      "outputs": [
        {
          "name": "",
          "type": "int32"
        }
      ],
      "payable": false,
      "stateMutability": "view",
      "type": "function",
      "signature": "0x6cfb395e"
    },
    {
      "constant": true,
      "inputs": [],
      "name": "owner",
      "outputs": [
        {
          "name": "",
          "type": "address"
        }
      ],
      "payable": false,
      "stateMutability": "view",
      "type": "function",
      "signature": "0x8da5cb5b"
    },
    {
      "constant": true,
      "inputs": [],
      "name": "COIN_WIDTH",
      "outputs": [
        {
          "name": "",
          "type": "int32"
        }
      ],
      "payable": false,
      "stateMutability": "view",
      "type": "function",
      "signature": "0xa025cb85"
    },
    {
      "inputs": [],
      "payable": false,
      "stateMutability": "nonpayable",
      "type": "constructor",
      "signature": "constructor"
    },
    {
      "anonymous": false,
      "inputs": [
        {
          "indexed": false,
          "name": "dx",
          "type": "int32"
        },
        {
          "indexed": false,
          "name": "coinCount",
          "type": "uint32"
        },
        {
          "indexed": false,
          "name": "resultStability",
          "type": "int32"
        }
      ],
      "name": "PlayResult",
      "type": "event",
      "signature": "0x17cdb6ee2820ebfd65d45146f0c08786b786a2bc0e83e2e7fb65fafa8dafbfc4"
    },
    {
      "constant": false,
      "inputs": [
        {
          "name": "dx",
          "type": "int32"
        }
      ],
      "name": "play",
      "outputs": [],
      "payable": true,
      "stateMutability": "payable",
      "type": "function",
      "signature": "0xa8291e0d"
    },
    {
      "constant": false,
      "inputs": [
        {
          "name": "_playPrice",
          "type": "uint256"
        }
      ],
      "name": "setPlayPrice",
      "outputs": [],
      "payable": false,
      "stateMutability": "nonpayable",
      "type": "function",
      "signature": "0x59a9ae11"
    },
    {
      "constant": false,
      "inputs": [],
      "name": "kill",
      "outputs": [],
      "payable": false,
      "stateMutability": "nonpayable",
      "type": "function",
      "signature": "0x41c0e1b5"
    }
  ],
  "bytecode": "0x608060405234801561001057600080fd5b50336000806101000a81548173ffffffffffffffffffffffffffffffffffffffff021916908373ffffffffffffffffffffffffffffffffffffffff16021790555060008060146101000a81548163ffffffff021916908363ffffffff16021790555067016345785d8a00006001819055506107cc806100906000396000f3fe608060405260043610610099576000357c0100000000000000000000000000000000000000000000000000000000900463ffffffff1680630a9066391461009e57806341c0e1b5146100c957806359a9ae11146100e0578063678fd2891461011b57806369c1a7ed146101525780636cfb395e1461017d5780638da5cb5b146101d2578063a025cb8514610229578063a8291e0d1461025a575b600080fd5b3480156100aa57600080fd5b506100b361028b565b6040518082815260200191505060405180910390f35b3480156100d557600080fd5b506100de610290565b005b3480156100ec57600080fd5b506101196004803603602081101561010357600080fd5b810190808035906020019092919050505061036d565b005b34801561012757600080fd5b5061013061045c565b604051808263ffffffff1663ffffffff16815260200191505060405180910390f35b34801561015e57600080fd5b50610167610472565b6040518082815260200191505060405180910390f35b34801561018957600080fd5b506101b6600480360360208110156101a057600080fd5b8101908080359060200190929190505050610478565b604051808260030b60030b815260200191505060405180910390f35b3480156101de57600080fd5b506101e76104a4565b604051808273ffffffffffffffffffffffffffffffffffffffff1673ffffffffffffffffffffffffffffffffffffffff16815260200191505060405180910390f35b34801561023557600080fd5b5061023e6104c9565b604051808260030b60030b815260200191505060405180910390f35b6102896004803603602081101561027057600080fd5b81019080803560030b90602001909291905050506104cf565b005b601e81565b6000809054906101000a900473ffffffffffffffffffffffffffffffffffffffff1673ffffffffffffffffffffffffffffffffffffffff163373ffffffffffffffffffffffffffffffffffffffff16141515610354576040517f08c379a000000000000000000000000000000000000000000000000000000000815260040180806020018281038252600a8152602001807f4f6e6c79206f776e65720000000000000000000000000000000000000000000081525060200191505060405180910390fd5b3373ffffffffffffffffffffffffffffffffffffffff16ff5b6000809054906101000a900473ffffffffffffffffffffffffffffffffffffffff1673ffffffffffffffffffffffffffffffffffffffff163373ffffffffffffffffffffffffffffffffffffffff16141515610431576040517f08c379a000000000000000000000000000000000000000000000000000000000815260040180806020018281038252600a8152602001807f4f6e6c79206f776e65720000000000000000000000000000000000000000000081525060200191505060405180910390fd5b60008060149054906101000a900463ffffffff1663ffffffff16141561045957806001819055505b50565b600060149054906101000a900463ffffffff1681565b60015481565b600281601e8110151561048757fe5b60089182820401919006600402915054906101000a900460030b81565b6000809054906101000a900473ffffffffffffffffffffffffffffffffffffffff1681565b6101f481565b600154341415156104dc57fe5b806002600060149054906101000a900463ffffffff1663ffffffff16601e8110151561050457fe5b600891828204019190066004026101000a81548163ffffffff021916908360030b63ffffffff1602179055506000610553600060149054906101000a900463ffffffff166101f460030b6106bc565b90507f17cdb6ee2820ebfd65d45146f0c08786b786a2bc0e83e2e7fb65fafa8dafbfc482600060149054906101000a900463ffffffff1683604051808460030b60030b81526020018363ffffffff1663ffffffff1681526020018260030b60030b8152602001935050505060405180910390a160008160030b12151561067c57600081600060149054906101000a900463ffffffff1660010103905060018163ffffffff1611156106245781600060146101000a81548163ffffffff021916908363ffffffff160217905550610625565b5b3373ffffffffffffffffffffffffffffffffffffffff166108fc8263ffffffff16600154029081150290604051600060405180830381858888f19350505050158015610675573d6000803e3d6000fd5b50506106b8565b6000601481819054906101000a900463ffffffff168092919060010191906101000a81548163ffffffff021916908363ffffffff160217905550505b5050565b6000807fffffffffffffffffffffffffffffffffffffffffffffffffffffffffffffffff9050600080600090506000808790505b601e8163ffffffff16108015610709575060008560030b125b156107925760018189030163ffffffff16935060028163ffffffff16601e8110151561073157fe5b600891828204019190066004029054906101000a900460030b60030b8484600187030281151561075d57fe5b050191508192508682131561077457809450610784565b86600003821215610783578094505b5b8080600190039150506106f0565b84955050505050509291505056fea165627a7a72305820dbbcb0dafe0cdb53a257a6de7adb4dac8682151efd04c3aaae9852f744c59aba0029",
  "source": "pragma solidity 0.5.0;\n\n\ncontract TowerGame {\n    /* TOWER GAME\n\n    The tower game is based on the idea o piling up wide rectangles in a 2D plane with gravity\n    Players can choose the relative distance from the center vertical line of the plane to position\n    then next rectangle on top of the previous. This contract will compute the static stability of \n    the rectangles assuming uniform density and equal mass and dimensions.\n    \n                      dx\n                    |--->\n              █████████████\n        █████████████\n           █████████████\n       █████████████\n    /=============\\\n\n    When a player executes a play, deposits a play price on the contract, `x`. \n    When a play causes `n` coins to fall, the player will be transfered `n*x` as prize.\n\n    Players will call the play function with the desired relative position of the next coin `dx`\n    This function will:\n    1. Compute the stability of the current tower\n    2. If it is unstable and will fall, transfer the prize to the msg.sender \n    3. Update the status of the tower, new coin position and number of coins\n    \n    */\n\n    /* Last updated March 9 2018 */\n    address public owner;\n    uint32 public coinCount;\n    uint public playPrice;\n    uint constant public MAX_N = 30;\n    int32[MAX_N] public coinPositionsArray;\n\n    /* Game constants, coin width already set a half */\n    int32 constant public COIN_WIDTH = 1000/2;\n\n    event PlayResult(int32 dx, uint32 coinCount, int32 resultStability);\n\n    constructor() public {\n        owner = msg.sender;\n        coinCount = 0;\n        playPrice = 0.1 * 1000000000000000000;\n    }\n\n    modifier onlyOwner {\n        if (msg.sender != owner) revert(\"Only owner\");\n        _;\n    }\n\n    function play(int32 dx) public payable {\n        /* Verify user is paying the correct amount */\n        assert(msg.value == playPrice);\n\n        /* Update the dxs so the front-end can draw properly */\n        /* dx = relative position from previous coin */\n        coinPositionsArray[coinCount] = dx;\n        int32 resultStability = checkStability(coinCount, COIN_WIDTH);\n        /* resultStability = (if fall) new count (else) -1 */\n        emit PlayResult(dx, coinCount, resultStability);\n\n        if (resultStability >= 0) {\n            /* Resolve a partial win */\n            uint32 numberOfFallenCoins = 1+coinCount-uint32(resultStability);\n            if (numberOfFallenCoins > 1) {\n                /* Multiple coins have fallen */\n                /* Only update count if it's necessary */\n                coinCount = uint32(resultStability);\n            } else {\n                /* Only the last coin has fallen */\n            }\n            msg.sender.transfer(playPrice * numberOfFallenCoins);\n        } else {\n            /* Not a win, add coin to stack */\n            coinCount++;\n        }\n    }\n\n    function setPlayPrice(uint _playPrice) public onlyOwner {\n        if (coinCount == 0) {\n            playPrice = _playPrice;\n        }\n    }\n\n    function kill() public onlyOwner {\n        selfdestruct(msg.sender);\n    }\n\n    function checkStability(uint32 n, int w) internal view returns (int32) {\n        /* (if fall) returns new count (else) returns -1 */\n        /* input n is current coin count EXCLUDING the new */\n        int32 res = -1;\n        int f; \n        int k0 = 0; \n        int k1;\n        uint32 i = n;\n        // Scroll from top (n) to bottom (0)\n        while (i < MAX_N && res < 0) {\n        // factor f is 1 for the top coin then, sum 1 downwards\n            f = n-i+1;\n        // Maybe test the new coin alone to avoid adding uncessarily to storage\n            k1 = (f-1)*k0/f+coinPositionsArray[i];\n            k0 = k1;\n            if (k1 > w) {\n                res = int32(i);\n            } else if (k1 < -w) {\n                res = int32(i);\n            }\n            i--;\n        }\n        return res;\n    }\n\n}\n",
  "sourcePath": "/Users/LION/code/ethereumTower/contracts/TowerGame.sol",
  "compiler": {
    "name": "solc",
    "version": "0.5.0+commit.1d4f565a.Emscripten.clang"
  },
  "schemaVersion": "3.0.1",
  "updatedAt": "2019-02-02T21:30:39.157Z",
  "devdoc": {
    "methods": {}
  },
  "userdoc": {
    "methods": {}
  }
}